:0400000080312C28F7
:1000080080318B1D0828092816282700131D0D2864
:100018000E281628131120008C160C167608950049
:100028000B118B168B1E19281A282B280B1D1D281F
:100038001E282B280C1E2128222828280C12750877
:1000480095000B118B162B288C128B120B110900A3
:1000580088018031AD280034043404340534063472
:10006800FC34FA34FA34FA34C834AB34AB34AB3435
:1000780020000C080339F0007008F1007108303EC8
:1000880080310A008031F0007008F20072087406AE
:1000980003194F28502857287208F0007008F400F8
:1000A8007408210095007108383E80310A008031BB
:1000B800F0007008F20072087606031964286528B3
:1000C80069287208F0007008F6007108343E803123
:1000D8000A008031F0007008F200720875060319F2
:1000E800762877287B287208F0007008F500080049
:1000F800F030210099000630950023008C01CF30A4
:1001080021008C000F3020008C003F3024008C0030
:100118000630F3007308F400AB30F3007308F60000
:10012800FA30F3007308F50021009D0122009701C1
:100138000430270091000430920093018B158B172F
:1001480020000C128C1280313C208031A72880318D
:080158002C28200080317C28D6
:020000040001F9
:080000000000000000000000F8
:04000E00E4C9FFFF43
:00000001FF
