:0400000080313828EB
:10000800803120007F08F0008B1D0B280C281B284E
:100018002700131D102811281B28131120008C16E7
:100028000C16770895000B118B161B281B288B1EA6
:100038001E281F2834280B1D222823283428200096
:100048000C1E272828282E280C12760895000B113C
:100058008B1634288C128B120B1134283428342830
:1000680070082000FF00090088018031BD282000A9
:100078000C080339F1007108F2007208B13E8031B2
:100088000A008031F1007108F3007308750603193E
:100098004E284F2857287308F1007108F500750895
:1000A8002100950057287208B93E80310A00803136
:1000B800F1007108F30073087706031964286528AE
:1000C8006A287308F1007108F7006A287208B53EBB
:1000D80080310A008031F1007108F3007308760658
:1000E8000319772878287D287308F1007108F6002D
:1000F8007D280800F0302100990006309500230083
:100108008C01CF3021008C0020008C013F3024006E
:100118008C000630F4007408F5007E30F400740892
:10012800F700E130F4007408F60021009D01220078
:1001380097010430270091000430920093018B1539
:100148008B1720000C128C12A92880313B2080319B
:10015800A928A92880313828003404340434053407
:100168000634EA34E134E134E134A9347E347E34AF
:080178007E34200080317E2856
:020000040001F9
:080000000000000000000000F8
:04000E00E4C9FFFF43
:00000001FF
