:0400000080312C28F7
:10000800803120007F08F0008B1D19282700131D60
:100018001928131120008C168C16000020000C16CD
:100028000C16770895000B118B168B1A0B1D2828B8
:1000380020000C1E25280C12760895000B118B1633
:1000480028288C128B120B1170082000FF00090061
:1000580080312E28200080316B2820000C080339BD
:10006800F1007108F20072089B3E80310A0080316D
:10007800F1007108F3007308750603194A2873081C
:10008800F1007108F5007508210095007208A33E7B
:1000980080310A008031F1007108F3007308770697
:1000A80003195A287308F1007108F70072089F3E77
:1000B80080310A008031F1007108F3007308760678
:1000C800031908007308F1007108F6000800F03001
:1000D800210099000630950023008C01CF302100C3
:1000E8008C000F3020008C003F3024008C0006303C
:1000F800F4007408F500AB30F4007408F700FA3027
:10010800F4007408F60021009D01220097010430D4
:10011800270091000430920093018B158B17200063
:100128000C128C128031312080319628003404342E
:10013800043405340634FC34FA34FA34FA34C83456
:06014800AB34AB34AB3414
:020000040001F9
:04000E00E4EFFFFF1D
:00000001FF
