:0400000080315128D2
:10000800803120007F08F1002100111E29282000DE
:10001800111E29287A087B06031923287B08203E0D
:1000280086008701010823009A000130F00070085B
:10003800FB0720307B02031C2928FB0129287B08A9
:100048007A06031D2928210011122000911C4E2830
:1000580091100130C2070030C33D643042064304AA
:10006800031D4E28C201C30118101708F0007008BC
:10007800C5001608F0007008C60011109701960117
:1000880018140130F0007008C700440803194E28FE
:100098000130C4027108FF00090080315328FA01B9
:1000A800FB0120308400003085002E308331492345
:1000B800200080315F2873302100990003309500BB
:1000C80023008C01203020008C003B3024008C0061
:1000D8002E3021008C008B019D0122009701823176
:1000E800B922803183313B23803122009D01823047
:1000F80023009E009D011E159F151E12CF309B00E8
:100108009C019E169D171D162100911211122000A8
:100118009112111223001F121F10FA01FB018B17F5
:100128000B1783312B238031833118238031023020
:100138002000EB000430EA00BA30E900E90BA228FD
:10014800EA0BA228EB0BA2280000C530F50081308D
:10015800F600833103238031230019082000E900C9
:100168006908EC000530E9006908C400911EED2813
:10017800230019082000E9006908EC00ED28200098
:100188004D08C901C9074C08C801C8078231802237
:10019800803183313B238031AF30F5008130F60068
:1001A800833103238031F72820004D08CB01CB078A
:1001B8004C08CA01CA0782318022803183313B232F
:1001C80080319730F5008130F60083310323803188
:1001D800F728823161228031013A0319C328033A92
:1001E8000319D828F728200047080319BA28450812
:1001F800E9006908CD004608E9006908CC004D0807
:10020800D801D8074C08D701D7078231ED228031B1
:100218000D3082319D2280310A3082319D22803119
:100228002000C70141084D02031D1C2940084C024B
:10023800031820290C16BA280C12BA282000D60058
:100248004F08D401D4074E08D301D3075108F3014E
:10025800F3075008F201F2075408F501F5075308AF
:10026800F401F4078131DA21813173082000D401C7
:10027800D4077208D301D3070130D2005208D60739
:1002880054085304031D2A29560886008701810152
:100298000130D6025108F301F3075008F201F207C2
:1002A8004F08F501F5074E08F401F40782311022D2
:1002B800813172082000D2005208D5005108F3019C
:1002C800F3075008F201F2074F08F501F5074E0849
:1002D800F401F4078131DA21813173082000CF015C
:1002E800CF077208CE01CE070A305502031C8029B9
:1002F8000730D2005208D5073030D2005208D5074F
:100308005508D2005608860087015208810001303E
:10031800D6024F084E04031D4E290130D200520860
:10032800D60708000034533474346F34723465349B
:10033800203457346134743465347234203446348C
:10034800723465347134753465346E346334793499
:100358000A340D340034533474346F3472346534D1
:10036800203441346934723420344634723465346C
:100378007134753465346E34633479340A340D3429
:10038800003457346134743465347234203444345E
:1003980065347434653463347434203456343134F9
:1003A8002E34303431340A340D340034F801F90174
:1003B800730872040319092AF701F70AF31BEE29D7
:1003C8000130F235F30D890BE5290130F600760886
:1003D800F707E2290130F835F90D890BEF29730881
:1003E8007502031DF92972087402031C002A720899
:1003F800F4027308F53B78140130F336F20C890BDC
:10040800012A0130F702031DEE297908F301F307E9
:100418007808F201F2070800730872040319372AF2
:10042800F701F70AF31B222A0130F235F30D890B85
:10043800192A0130F6007608F707162A730875029C
:10044800031D282A72087402031C2E2A7208F4025B
:100458007308F53B0130F336F20C890B2F2A013073
:10046800F702031D222A7508F301F3077408F20145
:10047800F2070800F500230095183F2A7508F300D5
:10048800F4017308910074089200720893003F30D9
:10049800F30073089505200003108B1B03148B13BE
:1004A8002300151555309600AA309600951415119D
:1004B8002000031C08008B170800F30120008C188B
:1004C8008C1E682A003008004408031D7A2A8C18FC
:1004D8006F2A8C1E7A2A8C18742AF301F30A7A2A56
:1004E8008C1A7A2A0230F2007208F3000330F20004
:1004F8007208C400730808004830F6007608F70050
:10050800F80104307802031808007708860087018C
:100518000108F6007608F200780882313E2282311E
:100528000130F6007608F7070130F6007608F8077C
:10053800852AF3007A0AF2007208F4002030740267
:100548000318F40174087B060319A62A7308F2003D
:100558007A08203E86008701720881007408F2003C
:100568007208FA002100111608004830F6007608D3
:10057800F700F8010430780203180800780882317F
:10058800D5228231F6007708860087017608810037
:100598000130F6007608F7070130F6007608F8070C
:1005A800BE2AF500640023009518D62A7508F200C3
:1005B800F30172089100730892003F30F400740848
:1005C800950515140310151803140030093D130878
:1005D800080020005808CF01CF075708CE01CE07E2
:1005E8000A30D0000030D1005930813122218231C7
:1005F8005930F5000030F6008331032308007508F0
:10060800840076088500000800380319080075087A
:10061800840076088500000882319D2283310130EC
:10062800F5070030F63D032B843020009E009E170E
:1006380002309F00C0309800990197019601CC01C3
:10064800CD01C501C60111102100111008002000BC
:100658009C017D309B009A0106309C009110C201DC
:10066800C301C701210091140B178B170800200044
:1006780048084A07F20049084B3DF300F336F20CEC
:100688007208C0007308C1000800640080010131CD
:06069800890B4A2B00341F
:020000040001F9
:04000E00E4EFFFFE1E
:08E0000048000D00600009005A
:00000001FF
