:0400000080319C2887
:10000800803120007F08F100911C0B280C28332830
:1000180091100130A8070030A93D64302806290452
:10002800031D172818282B28A801A901181017083C
:10003800F0007008AA001608F0007008AB00111054
:10004800970196011814B5010314B50D2B2837082C
:10005800031D2F2833280130B70233283328210005
:10006800111E3728382863282000111E3C283D28F7
:10007800632879087A0603194228432858288C16D9
:100088007A08B03E86008701010823009A000130F3
:10009800F0007008FA0710307A02031C542855281B
:1000A8006328FA01632863287A087906031D5D2806
:1000B8005E28632821001112632863286328210021
:1000C800911E6728682888282000911E6C286D28B2
:1000D800882823001908F0007B08A03E86008701C5
:1000E800700881000130F0007008FB077E302000A6
:1000F80095000B118B167B08103A031D8428852860
:100108008828FB01882888288B1E8B288C2898280B
:100118000B1D8F28902898282000B1010314B10DD9
:100128008B120B119828982871082000FF000900ED
:1001380088018031E9286730F6007608F700F80171
:1001480005307802031CA928AA28AC28C528C52888
:1001580078088731E4278031F60077088600870120
:10016800760881000130F6007608F7070130F600BE
:100178007608F80705307802031CC328C428AC2881
:10018800C5280800C828C8288F3198278031003A28
:100198000319CF28D028C828D12820003308A03E2A
:1001A800860087010108F2007208F3000130F200AE
:1001B8007208B30710303302031CE328E428E6284A
:1001C800B301E6287308E8280800F901FA01FB01E1
:1001D800203084000030850028308F31922780310C
:1001E800A03084000030850020308F319227803184
:0601F80020008331012B01
:1002000000340034C134813440340134C03480348B
:1002100041340134C034803441340034C134813439
:1002200040340134C034803441340034C13481342A
:1002300040340034C134813440340134C03480341B
:1002400041340134C034803441340034C134813409
:1002500040340034C134813440340134C0348034FB
:1002600041340034C134813440340134C0348034EA
:1002700041340134C034803441340034C1348134D9
:1002800040340134C034803441340034C1348134CA
:1002900040340034C134813440340134C0348034BB
:1002A00041340034C134813440340134C0348034AA
:1002B00041340134C034803441340034C134813499
:1002C00040340034C134813440340134C03480348B
:1002D00041340134C034803441340034C134813479
:1002E00040340134C034803441340034C13481346A
:1002F00040340034C134813440340134C03480345B
:1003000041340134C034803441340034C134813448
:1003100040340034C134813440340134C03480343A
:1003200041340034C134813440340134C034803429
:1003300041340134C034803441340034C134813418
:1003400040340034C134813440340134C03480340A
:1003500041340134C034803441340034C1348134F8
:1003600040340134C034803441340034C1348134E9
:1003700040340034C134813440340134C0348034DA
:1003800041340034C134813440340134C0348034C9
:1003900041340134C034803441340034C1348134B8
:1003A00040340134C034803441340034C1348134A9
:1003B00040340034C134813440340134C03480349A
:1003C00041340134C034803441340034C134813488
:1003D00040340034C134813440340134C03480347A
:1003E00041340034C134813440340134C034803469
:1003F00041340134C034803441340034C134813458
:1004000040340034C034C1340134C33403340234C2
:10041000C234C63406340734C7340534C534C43452
:100420000434CC340C340D34CD340F34CF34CE34CA
:100430000E340A34CA34CB340B34C934093408348A
:10044000C834D83418341934D9341B34DB34DA3492
:100450001A341E34DE34DF341F34DD341D341C34D2
:10046000DC341434D434D5341534D734173416343A
:10047000D634D23412341334D3341134D134D0348A
:100480001034F03430343134F1343334F334F23462
:1004900032343634F634F7343734F53435343434D2
:1004A000F4343C34FC34FD343D34FF343F343E34CA
:1004B000FE34FA343A343B34FB343934F934F8340A
:1004C00038342834E834E9342934EB342B342A34F2
:1004D000EA34EE342E342F34EF342D34ED34EC3452
:1004E0002C34E43424342534E5342734E734E6343A
:1004F00026342234E234E3342334E134213420340A
:10050000E034A03460346134A1346334A334A234C1
:1005100062346634A634A7346734A5346534643451
:10052000A4346C34AC34AD346D34AF346F346E34C9
:10053000AE34AA346A346B34AB346934A934A83489
:1005400068347834B834B9347934BB347B347A3491
:10055000BA34BE347E347F34BF347D34BD34BC34D1
:100560007C34B43474347534B5347734B734B63439
:1005700076347234B234B3347334B1347134703489
:10058000B034503490349134513493345334523421
:1005900092349634563457349734553495349434D1
:1005A00054349C345C345D349D345F349F349E34C9
:1005B0005E345A349A349B345B3499345934583409
:1005C000983488344834493489344B348B348A34F1
:1005D0004A344E348E348F344F348D344D344C3451
:1005E0008C34443484348534453487344734463439
:1005F0008634823442344334833441348134803409
:1006000040347330210099000430950023008C01A0
:10061000013020008C003B3024008C000E30210083
:100620008C008B018B129D01220097014830200025
:10063000E7000D30E800EB010314EB0D6030E9003A
:100640000930EA008F31C32783312000B70122002F
:100650009D01823023009E009D011E159F151E12D4
:10066000CF309B009C019E169D171D162100111274
:1006700020009112111223001F121F10F901FA011C
:10068000FB012000B3018B170B172100911680315D
:100690009F2083318F31B32783318F31D42783312A
:1006A0002000AC010314AC0D292C292C8B120B114A
:1006B000B1018C120330E2009730E100E10B5E2BB8
:1006C000E20B5E2B632B8F31A02783312000AC011E
:1006D0000314AC0D6B2B23001D1D6F2B702B762B81
:1006E00019082000E1006108E4003A2C9D1C792BD8
:1006F0007A2B7D2B1D121D167D2B8F319827833170
:100700000038031D842B852B872B3A2C3A2C803103
:10071000C62083312000E1006108E4006408031D65
:10072000922B982BF8306402031C972B982B9C2B50
:100730008B120B11B1013A2CAD010314AD0D6408FD
:10074000E1006108B800B2010230E1006108AC00CC
:100750003A2CCE2B8031C62083312000E100610885
:10076000E4003208031DB52BB72BD72BD72B640819
:10077000E1002D08383E86008701610881000130C4
:10078000E1006108AD070F302D02031CC82BC92BF7
:10079000CE2BB2010314B20DCE2BCE2B8F31982766
:1007A00083310038031DD52BD62BAA2BD72B200045
:1007B0003108031DDC2B3A2C3208031DE02BE42BFF
:1007C000AC010314AC0D3A2C2D08E1006108F800CF
:1007D000383084315B2483312000E2006208E3007A
:1007E0006308013A031DF52BF62BFB2B0330E100C8
:1007F0006108AC003A2C6308023A031D002C012C5E
:10080000042CAC013A2C3A2C6308033A031D092C42
:100810000A2C0D2CAC013A2C3A2C0530E100610871
:10082000AC003A2C3A2C3A2C3A2C3A2C87312B2714
:10083000833105302000E1006108AC001F2C8F31AE
:10084000E727833120008C12AC01262CAC013A2C16
:100850003A2C2C08003A0319562B013A03196B2B3A
:10086000033A0319CE2B013A0319162C063A031941
:100870001F2C262C20003508031D3F2C292C2A086C
:10088000E1006108A7002B08E1006108A600B5019E
:1008900066082702031D4E2C650826020318512CFA
:1008A000522C542C0C16292C0C12292C292C292CB6
:1008B000292C80319C282000D400083078020318AD
:1008C000622C632C682C0330CD004D08D300F82C2B
:1008D0005408860087010108CD004D08AF000130A3
:1008E000CD004D08D4075408860087010108CD00CB
:1008F0004D08AE000130CD004D08D4075408013E2C
:10090000860087010108CD00CE01540886008701CA
:100910000108CF00D0014F08D000CF014D084F078C
:10092000A0004E08503DA1000230CD004D08D40774
:100930005408013E860087010108CD00CE0154080D
:10094000860087010108CF00D0014F08D000CF01F9
:100950004D084F07A4004E08503DA5000230CD00C1
:100960004D08D4075408013E860087010108CD00D8
:10097000CE015408860087010108CF00D0014F083E
:10098000D000CF014D084F07A2004E08503DA300F4
:100990000230CD004D08D4077808FE3ECD004D084A
:1009A000F200383086315326843173082000D2019A
:1009B000D2077208D101D10723085206031DE22C89
:1009C000220851060319E52CE62CE82CD301F82C5B
:1009D0006B082F06031DED2CEE2CF22CD301031413
:1009E000D30DF82C0230CD004D08D300F82CF82C94
:1009F0005308FA2C080020006B08F8007808CD0096
:100A00002E08F8007808CE000230F8007808CF00F1
:100A10002108F8007808D0002008F8007808D100F4
:100A20002508F8007808D2002408F8007808D300D8
:100A30000730F8007808F2004D30863153268431B3
:100A400073082000D801D8077208D701D7075808C3
:100A5000F8007808D4005708F8007808D500D901C4
:100A6000DA0100305A02093003195902031C392DEA
:100A70003A2D3C2D532D532D59084D3E86008701AC
:100A8000010887319127843101302000D9070030D7
:100A9000DA3D00305A02093003195902031C512D66
:100AA000522D3C2D532DB0010314B00D0800003021
:100AB000200021020530031920020318602D612D4A
:100AC000692D0130240625040319672D682D962D04
:100AD000692D0230DB005B08F8002E088038863173
:100AE00005268531B02D962D20006808DE01DE0731
:100AF0006708DD01DD07A62D6A08DE01DE0769084B
:100B0000DD01DD07A62D6B08DB00DC015B08DD00E5
:100B10005C08DE00A62D0130DD000130DE00A62DD0
:100B20003130DD006530DE00A62DA62D2000210825
:100B3000003A03199C2DA62D2008840005300402DC
:100B40000318A62D88310435003E82005E08CE01D0
:100B5000CE075D08CD01CD078531B1258531B02D9A
:100B6000080020006B08F8007808CF002E08F80075
:100B70007808D0000230F8007808D1004E08F8005C
:100B80007808D2004D08F8007808D3000530F80046
:100B90007808F2004F3086315326853173082000E3
:100BA000D801D8077208D701D7075808F800780885
:100BB000D4005708F8007808D500D901DA010030D0
:100BC0005A02073003195902031CE72DE82DEA2DBC
:100BD000012E012E59084F3E8600870101088731FA
:100BE0009127853101302000D9070030DA3D0030EF
:100BF0005A02073003195902031CFF2D002EEA2D5B
:100C0000012EB0010314B00D08002000D6006B08BF
:100C1000CD004D08CE0056088038CD004D08CF00DD
:100C20007808CD004D08D0000330CD004D08F2000B
:100C30004E3086315326863173082000D801D807FC
:100C40007208D701D7075808CD004D08D1005708C2
:100C5000CD004D08D200D901DA0100305A0205302A
:100C600003195902031C352E362E382E4F2E4F2EC7
:100C700059084E3E86008701010887319127863149
:100C800001302000D9070030DA3D00305A0205302B
:100C900003195902031C4D2E4E2E382E4F2EB00133
:100CA0000314B00D08002000C800FF30F4007408E1
:100CB000CB00FF30F4007408CC00852E4808860075
:100CC000870101084B06F400F5017408C900750896
:100CD000CA000130F4007408C8074908013E8400C6
:100CE00081300318013E850000084C06F4007408AA
:100CF000CB004908013E840082300318013E850084
:100D00000008F4007408CC00852E0130F20272084D
:100D1000FF3A031D8C2E8D2E5E2E8E2E4C08F40075
:100D2000F5014B08F600F7017608F700F6017408A4
:100D30007604F20075087704F3009E2E0800003058
:100D400020002102033003192002031CA82EA92E23
:100D5000C92E0230DB005B08F8002E08803886318F
:100D600005268631E42EC92E20002508E801E80773
:100D70002408E701E707DA2E2508EA01EA07240834
:100D8000E901E907DA2E2408DB005B08EB00DA2E24
:100D9000DA2E20002108003A0319CF2EDA2E20087F
:100DA000003A0319B42E013A0319BC2E033A031971
:100DB000C32EDA2E8731BC2786318F31C327863187
:100DC0008431FB248631E42E08000030200021020B
:100DD0000230031920020318EE2EEF2EF72E0130F9
:100DE000240625040319F52EF62E122FF72E0230B5
:100DF000DB005B08F8002E08803886310526863136
:100E00002A2F122F20002708DE01DE072608DD0129
:100E1000DD07202F0C08DB00DC015B08DD005C082F
:100E2000DE00202F20002108003A0319182F202F60
:100E30002008003A0319022F013A03190A2F202F24
:100E40005E08CE01CE075D08CD01CD078531B12505
:100E500086312A2F080006302000E0003030DF0005
:100E6000DF0B302FE00B302F640020002E08033AF8
:100E7000031D3B2F3C2F402F853157258731622F93
:100E800020002E08043A031D462F472F4B2F863192
:100E9000E5268731622F20002E08063A031D512FC8
:100EA000522F562F86319F268731622FF801031467
:100EB000F80D20002E088038863105268731622FF4
:100EC000622F622F0800F500652F23009518692F07
:100ED0006A2F652F6B2F7508F300F40173089100DA
:100EE00074089200720893003F30F3007308950570
:100EF000200003108B1F7D2F7E2F7F2F03148B1359
:100F00002300151555309600AA309600951415113A
:100F10002000031C8C2F8D2F902F8B17902F902F3C
:100F20000800F3007308F20072082000B607790881
:100F3000013EF2007208F40010307402031CA12F6D
:100F4000A22FA62FF401A62FA62FA62F74087A068B
:100F50000319AB2FAC2FA62FAD2F7308F200790821
:100F6000B03E86008701720881007408F2007208A2
:100F7000F9002100111608006730F6007608F70026
:100F8000F80105307802031CC62FC72FC92FE32FA5
:100F9000E32F7708860087010108F6007608F20043
:100FA00078088731632787310130F6007608F70724
:100FB0000130F6007608F80705307802031CE12FAF
:100FC000E22FC92FE32F0800F500640023009518D5
:100FD000EA2FEB2FE52FEC2F7508F200F3017208D2
:100FE0009100730892003F30F400740895051514C1
:100FF0000310151803140030093D1308FF2F0800D3
:101000008531742D85317C2D8531832D85318B2D56
:041010008531902D69
:101F2400640080010131890B932F00347B08200069
:101F340033060030031D01309F2F08008B120B1154
:101F44008F31A8278F3120008C1208008B13FB01DE
:101F54002000B30123001908F2007208F3008B1764
:101F6400080020009C017D309B009A0106309C00F3
:101F74009110A801A901B501210091140B178B1729
:101F84000800200067086907F20068086A3DF3004A
:101F94000130F336F20C890BCB2F7208E50073087D
:101FA400E6000800883020009E009E1702309F0043
:101FB400C0309800990197019601A601A701AA01D2
:101FC400AB011110210011100800E92FE92F790845
:101FD4007A06031DEE2FEF2FE92FF12FF12F2100A9
:101FE400111AF52FF62FF12FF82FF82F23009E1C2E
:0C1FF400FC2FFD2FF82F20008C1208009D
:020000040001F9
:080000000000000000000000F8
:04000E00E4C9FFFE44
:10E0000048000D00600009007F00FF00FF00FF00D6
:00000001FF
